:020000040800F2
:10000000400700208D010008F9140008FD130008C6
:10001000F51400086D020008251500080000000016
:1000200000000000000000000000000001150008B2
:10003000B902000800000000FD14000805150008C2
:10004000A7010008A7010008A7010008A7010008F0
:10005000A7010008A7010008A7010008A7010008E0
:10006000A7010008A7010008A7010008A7010008D0
:10007000A7010008A7010008A7010008A7010008C0
:10008000A7010008A7010008A70100080D15000836
:1000900019150008A7010008A7010008A70100081A
:1000A000A7010008A7010008A7010008A701000890
:1000B000A7010008A7010008A7010008A701000880
:1000C000A7010008A7010008A7010008A701000870
:1000D000A7010008A7010008A7010008A701000860
:1000E000A7010008A7010008A701000800F002F816
:1000F00000F03CF80AA090E8000C82448344AAF186
:100100000107DA4501D100F031F8AFF2090EBAE883
:100110000F0013F0010F18BFFB1A43F0010318473B
:1001200094150000B4150000103A24BF78C878C1B7
:10013000FAD8520724BF30C830C144BF04680C60ED
:10014000704700000023002400250026103A28BF35
:1001500078C1FBD8520728BF30C148BF0B60704739
:100160001FB500F037F81FBD10B510BD00F044F802
:100170001146FFF7F5FF01F053FA00F062F803B4FF
:10018000FFF7F2FF03BC00F06BF80000094880475E
:1001900009480047FEE7FEE7FEE7FEE7FEE7FEE769
:1001A000FEE7FEE7FEE7FEE704480549054A064B81
:1001B0007047000009150008ED000008400100200C
:1001C0004007002040030020400300207047704794
:1001D0007047000070B5064C7C44064D7D4404E039
:1001E0002046016808448047241DAC42F8D170BD08
:1001F000F8140000F8140000754600F02BF8AE4625
:1002000005006946534620F00700854618B020B522
:10021000FFF7CAFFBDE820404FF000064FF000078F
:100220004FF000084FF0000BAC46ACE8C009ACE85A
:10023000C009ACE8C009ACE8C00921F007018D464F
:10024000704710B50446AFF300802046BDE810406B
:10025000FFF795BF0048704710000020704700006E
:1002600001491820ABBEFEE726000200FEE70000B1
:1002700080B501F071F940F22010C2F20000BDE833
:10028000804001F08BB9000010B5C82001F06EF974
:1002900040F22014C2F20004204601F099F9C8206F
:1002A00001F064F9204601F045F940F6C410BDE8BC
:1002B000104001F05BB9000070470000EFF31080C0
:1002C00072B600BFFEE7000090F82020013A012A34
:1002D00008D8006800F11402002013681943116067
:1002E000704700BF00F1240201204FF48021136801
:1002F000194311607047000010B590F820E0D0F865
:1003000000C0AEF1010EBEF1010FDCF808E011D81B
:100310001EF0E05F18D0CEF3016E012000FA0EF05F
:1003200018608B68D3B14868CC6844EAC0000343C6
:1003300018E000BF00F1240101204FF480220B6877
:100340001A430A6010BD00BF00F1240101204FF4E0
:1003500000120B681A430A6010BD00BF0868CB6822
:1003600043EA40530CEB0E10C0F880310B69C0F823
:100370008431097D012905D100F5C2710B6843F470
:1003800080730B605168C0F88C11126800F5C07161
:10039000C0F88821002001220B681A430A6010BDB2
:1003A000B0B5026890F82030013B012B28D8D2F874
:1003B0000002012340F00100C2F80002D1F814E06D
:1003C000CC690EF01F0003FA00F0D2F81C326FEA7D
:1003D000000C8343012CC2F81C3217D06CBBD2F83E
:1003E0000C3203EA0C03C2F80C32CB688C8844EA66
:1003F000034302EBCE04C4F840320B4615E000BFC5
:10040000416A41F4802141620120B0BDD2F80C3232
:100410000343C2F80C320B688C8844EA034302EBB6
:10042000CE04C4F8403201F10C038C681B8843EA07
:10043000044302EBCE04C4F84432D2F804328D698E
:1004400043EA0004D1F810E0096A002D08BF03EA6E
:100450000C04C2F80442D2F81432BEF1000F43EA91
:10046000000408BF03EA0C040129C2F8144204D1B5
:10047000D2F81C120843C2F81C02D2F8000220F085
:100480000100C2F800020020B0BD0000704700006B
:1004900010B590F82040013C012C7BD8D0F800C06A
:1004A000002900F08180DCF81040A40700F0818072
:1004B0000CEB011CDCF8B0410CF5D87E14F0040400
:1004C0009460DCF8B04119BFE4085460640D146016
:1004D000DEF800400CF5DA7E04F00204D460DCF8AB
:1004E000B44124075ABFDEF8004004F00F0408248A
:1004F0001461DEF800400029C4F307249461DEF89B
:1005000000404FEA14445461DCF8B8211A700268C4
:1005100002EB0112D2F8B8214FEA12225A70026897
:1005200002EB0112D2F8B8214FEA12429A70026827
:1005300002EB0112D2F8B8214FEA1262DA700268B7
:1005400002EB0112D2F8BC211A71026802EB01120F
:10055000D2F8BC214FEA12225A71026802EB011252
:10056000D2F8BC214FEA12429A71026802EB0112E2
:10057000D2F8BC214FEA1262DA71006814BF00F1B0
:10058000100100F10C01002020220B681A430A60C0
:1005900010BD00BF00F1240101204FF480220B6840
:1005A0001A430A6010BD00BFDCF80C40A4077FF4BA
:1005B0007FAF00F1240101204FF400120B681A43B1
:1005C0000A6010BD2DE9F04F81B00446006846690D
:1005D000D0F804908768D0F80CB0D0F810A0D0F80C
:1005E0001880F10704D1002530071DD424E000BF96
:1005F000F90710D00121BA07816009D4780700F10A
:10060000AF80380700F1B680204600F02BFA02E0F8
:10061000204600F029FA0025F80500F18780F8034C
:1006200000F1B180300707D51BF0100004D020681E
:1006300045F400751021C160700708D51BF0080053
:1006400005D020680821C160204600F0C3F9B0073A
:1006500006D52068C068800702D0204600F0BCF9AB
:10066000700607D51AF0100004D0206845F48065A4
:1006700010210161B00608D51AF0080005D02068E5
:1006800008210161204600F0B9F9F00606D520687E
:100690000069800702D0204600F0B2F9B00308D507
:1006A00019F0100005D0206810214160204600F0AC
:1006B000A9F9F00308D519F0080005D02068082131
:1006C0004160204600F0DAF9300440F19B805FEA97
:1006D000497040F1948006F4807008EA10202843A5
:1006E0005FEA8871014648BF41F00201B20558BF78
:1006F00001465FEA48700D4648BF45F004057005A5
:1007000058BF0D46300540F17A8018F0700000F0B7
:1007100076801038000905286CD8DFE800F003590E
:100720005D61656945F0080564E000BF20684FF42D
:100730008071BA0581600BD4780515D438051DD4B5
:10074000204600F093F9F8037FF56CAF1BE000BF83
:10075000204600F08DF9F8037FF564AF13E000BF89
:100760004FF4006558E700BF05F50055F8037FF525
:1007700059AF08E04FF480554EE700BF05F58045BE
:10078000F8037FF54FAF20684FF48031BA038160E2
:100790000AD4780310D4380314D4204600F06AF940
:1007A00030073FF541AF47E7204600F065F93007D5
:1007B0003FF53AAF40E700BF05F5004530073FF58C
:1007C00033AF39E705F5803530073FF52DAF33E717
:1007D00045F010050EE000BF45F020050AE000BF1F
:1007E00045F0400506E000BF45F0800502E000BF8F
:1007F00045F480752068816921F07001816120686D
:100800000421416055B1606A40EA050120466162F9
:1008100001B0BDE8F04FFFF739BE00BF01B0BDE841
:10082000F08F0000B0B5C8B1044690F8200010B9B0
:10083000204600F071F82068016841F00101016074
:1008400000F04EFA054600BF20684168C90707D18D
:1008500000F046FA401B0B28F6D312E00120B0BD91
:10086000016821F00201016000F03AFA054600BF7C
:100870002068416889070DD500F032FA401B0B282B
:10088000F6D3606A052140F400306062012084F8EC
:100890002010B0BD217E0268012922F0800208BF2D
:1008A00080320260617E0268012922F0400208BFA6
:1008B00040320260A17E0268012922F0200208BFB6
:1008C00020320260E17E0268012922F0100218BF86
:1008D00010320260217F0268012922F0080208BF5D
:1008E00008320260617F0268012922F0040208BF19
:1008F00004320260D4E901C2D4E9033561691A43C4
:100900002A431143ACF101021143C16100200121CE
:10091000606284F82010B0BDB0B586B0006846F2C1
:100920000042C4F2000200219042059102D006B0BC
:10093000B0BD00BF41F21800C4F20200426840F6A8
:10094000004442F0007242604268C4F2010402F0C6
:1009500000720192019A026802AD42F00802026040
:10096000006800F00800019001984FF48070CDE914
:10097000020104912046294600F096F84FF40070D9
:10098000029002200390032005902046294600F0A3
:100990008BF80420C4F20100016849F6FF72CFF61B
:1009A000FF02114041F0E06141F4804101601320F9
:1009B0000121002200F016FA132000F0FFF91420A4
:1009C0000221002200F00EFA142000F0F7F906B020
:1009D000B0BD00007047000010B540F2C004C2F284
:1009E0000004216804F11C0201F110030021FFF74B
:1009F0004FFD20680121017610BD00007047000006
:100A00007047000070470000B0B5044690F8200021
:100A100001281DD1022084F820002068016821F0FF
:100A20000101016000F05CF9054600BF20684068E4
:100A3000C00713D000F054F9401B0B28F6D3606AAE
:100A400040F400306062052084F820000120B0BD31
:100A5000606A40F4002060620120B0BD0020606246
:100A6000B0BD0000704700007047000070470000F4
:100A7000704700007047000070470000704700009A
:100A8000B0B5044600F02CF9054640F20000C2F271
:100A900000000078611C18BF044400BF00F020F97A
:100AA000401BA042FAD3B0BD2DE9F04F82B00E68D2
:100AB000002E00F0038141F20042C4F2010204233F
:100AC00040F2004E904208BF03234FF6FF7CC4F271
:100AD000010E009300240123C1F2100C4FF0000A14
:100AE0004FF0000949E000BF012704F00C030F227A
:100AF0009A402BEA020207FA03F34FEA9A051A43D7
:100B000046F82520D1F804B040F20C455FEACB222C
:100B1000DEF8082054BF22EA080242EA0802C4F2C2
:100B20000105CEF808202A685FEA8B2354BF22EA29
:100B3000080242EA08022A605FEA8B33DEF80420EA
:100B400054BF22EA080242EA08025FEACB33CEF839
:100B50000420DEF800204FF0010354BF22EA08020F
:100B600042EA0802CEF800200E680AF1010A36FABD
:100B70000AF204F1040400F0A18003FA0AF816EA6C
:100B8000080FF1D04E68664512DC122E56D8DFE809
:100B900006F0350B4549555555555555555555553F
:100BA0005555554D510000BFD1F80C9046E000BF9F
:100BB0004FF6FF72C1F2210296420FDC0022C1F211
:100BC000110296421AD00022C1F21202964215D0AA
:100BD0000022C1F22102964210D02FE00022C1F281
:100BE000220296420AD00022C1F23102964205D07A
:100BF0000022C1F23202964220D100BF8A684AB177
:100C0000012A14BFC0F81480C0F810804FF0080902
:100C100014E000BF4FF0040910E000BFCA6802F101
:100C200008090BE04FF0000908E000BFCA6802F1B4
:100C3000040903E0CA6802F10C0900BF2246064617
:100C4000BAF1080F24BF203A043637680F259540C3
:100C500027EA050509FA02F22A433260CA79D20668
:100C60007FF582AF41F21803C4F202031A68AEF5B1
:100C70007E7642F001021A601A6802F001020192C7
:100C8000019A2AF0030256F802B040F60002C4F2BC
:100C90000102904210D040F60042C4F2010290429C
:100CA0003FF422AF41F20002C4F20102009F9042E1
:100CB00008BF022719E700BF002716E702B0BDE80A
:100CC000F08F0000C26802EA0103914341EA034148
:100CD00001617047002A08BF0904016170470000E4
:100CE00040F23C10C2F200000068704740F2000081
:100CF00040F23C11C2F20000C2F2000100780A6822
:100D0000104408607047000080B542F20000C4F251
:100D10000200016841F010010160032000F08EF82C
:100D2000002000F005F800F027F8002080BD00004A
:100D300070B540F20006C2F2000640F208013278B7
:100D4000C2F200014FF47A730968B3FBF2F2044671
:100D5000B1FBF2F1084600F03BFB0F2C4FF0010510
:100D600008D838B94FF0FF3021460022002500F0A6
:100D700039F87460284670BD82B041F21800C4F2A0
:100D800002000168022241F001010160016801F0E6
:100D9000010101910199416841F080514160406831
:100DA00000F08050009000980420C4F20100016817
:100DB00062F31A61016002B070470000002848BF6A
:100DC0007047C1B200F01F00012202FA00F04EF29B
:100DD0000012CEF2000242EAD10121F003010860C4
:100DE0007047000010B54EF60C5CCEF2000CDCF83B
:100DF0000030C3F3022E8EF00704042C28BF042415
:100E0000BEF103034FF0FF3E0EFA04F438BF002397
:100E1000A14399400EFA03F39A43114300F00F02E5
:100E200000F160430901043A03F564436244002879
:100E300048BF02F10C03197010BD00004EF60C51B2
:100E4000CEF200010A684FF6FF031A4060F30A224F
:100E500042F0806040F0FD70086070472DE9F0437B
:100E600081B0002800F0858042F20008C4F2020838
:100E70000446D8F800000D4600F0070088420CD266
:100E8000D8F8000020F007002843C8F80000D8F880
:100E9000000000F00700A8426BD1206841F204096D
:100EA0008107C4F2020917D5410705D5D9F800100A
:100EB00041F4E061C9F80010010705D5D9F8001028
:100EC00041F46051C9F80010D9F80010A26821F06F
:100ED000F0011143C9F80010C00741D1D8F8000053
:100EE00000F00700A8420CD9D8F8000020F0070055
:100EF0002843C8F80000D8F8000000F00700A84216
:100F000037D12068410707D5D9F80010E26821F4ED
:100F1000E0611143C9F80010000708D5D9F80000B6
:100F2000216920F4605040EAC100C9F80000D9F8F6
:100F3000002002F00C00082841F20020C0F27A00E4
:100F400050D141F2A463C2F38341C0F60003595C5F
:100F5000D2033BD440F60010C0F23D00484341E0CC
:100F6000606802280AD001282AD159F8041C890394
:100F700008D4012001B0BDE8F08300BF59F8041C7B
:100F80008901F6D5D9F8001021F003010843C9F80A
:100F90000000FFF7A5FE064641F28837D9F80000A9
:100FA000616800F00C00B0EB810F97D0FFF798FE5E
:100FB000801BB842F2D9032001B0BDE8F08300BF26
:100FC00059F8041C8907D4D5DCE700BFD9F8002004
:100FD00041F2A263C2F34042C0F600039A5C484368
:100FE000B0FBF2F0D9F8001041F29262C1F30311A4
:100FF000C0F60002515C40F2080220FA01F140F212
:101000000400C2F200000068C2F200021160FFF7A3
:101010008FFE002001B0BDE8F08300002DE9F04113
:1010200082B0002868D00446007841F20006C0076C
:10103000C4F2020625D0706800F00C0004281BD012
:10104000706800F00C00082802D17068C00313D447
:101050006068002800F06881B0F5A02F00F07C8166
:10106000B0F5803F00F07C81306820F48030306043
:10107000306820F4802076E13068800301D5606814
:10108000D0B32078800718D5706810F00C0F07D007
:10109000706800F00C0008286ED17068C0036BD433
:1010A0003068800702D52069012825D13068616940
:1010B00020F0F80040EAC1003060207800071FD41B
:1010C0002078400732D4E56995B1706800F00C00D3
:1010D000082840F08F80012D0ED07068216A00F43E
:1010E00080328A4208D1616A00F47010884203D1CC
:1010F000002002B0BDE8F081012002B0BDE8F0811F
:10110000A069002862D00020C4F242200121C0F86A
:101110008014FFF7E5FD0546706A800700F18C80BA
:10112000FFF7DEFD401B0228F6D92AE1F06910F036
:10113000805808D1F06940F08050F061F06900F00B
:1011400080500090009847F20007C4F2000738680A
:10115000C00529D4386840F480703860FFF7C0FDBE
:10116000054600BF3868C0051ED4FFF7B9FD401B17
:101170006428F7D905E100BF2069002840F200008B
:10118000C4F2422000F0828001210160FFF7A8FD37
:10119000054600BF306880073FF588AFFFF7A0FD28
:1011A000401B0228F6D9ECE0E068002800F08080BF
:1011B000052800F09780012800F09880306A20F020
:1011C00001003062306A20F0040092E00020C4F296
:1011D00042200021C0F88014FFF782FD054600BFC1
:1011E000706A80077FF56CAFFFF77AFD401B02281D
:1011F000F6D9C6E00027C4F2422700203866FFF780
:101200006FFD022D05460BD13068800140F1BE8094
:10121000FFF766FD401B02284FF00300F4D968E792
:10122000306880017FF564AFFFF75AFD401B02284C
:101230004FF00300F4D95CE740F20800C2F200006E
:10124000006844F6D351C1F26201A0FB0101480AD3
:10125000019000BF00BF0198411E002801913FF49A
:101260002FAF00BF0198411E002801913FF428AF25
:1012700000BF0198411E002801913FF421AF00BF3B
:101280000198411E00280191E4D119E70021016075
:10129000FFF726FD054600BF306880077FF50DAFDC
:1012A000FFF71EFD401B02284FF00300F4D920E792
:1012B000306A20F001003062306A20F004003062B1
:1012C000FFF70EFD054641F2883700BF306A800700
:1012D00020D5FFF705FD401BB8424FF00300F5D9BC
:1012E00007E700BF306A40F004003062306A40F027
:1012F00001003062FFF7F4FC054641F2883700BF79
:10130000306A800706D4FFF7EBFC401BB842F7D9E0
:1013100037E000BFB8F1000F7FF4D5AEF06920F0E0
:101320008050F061CFE600BF306820F4803030603C
:10133000306820F480203060FFF7D2FC054600BF03
:10134000306880037FF59DAEFFF7CAFC401B642820
:101350004FF00300F4D9CCE6306840F480203060D0
:10136000306840F480303060FFF7BAFC054600BFBB
:10137000306880033FF585AEFFF7B2FC401B642860
:10138000F6D9032002B0BDE8F08100BF206AB0F5B5
:10139000803F05D17168A26821F40031114371606A
:1013A0007168626A21F4741111430843706001206E
:1013B0003866FFF795FC0446306880013FF598AE2B
:1013C000FFF78EFC001B02284FF00300F4D990E6D3
:1013D000411E0020B0EB116F1CBF012070474EF280
:1013E0001002CEF2000251604EF62351CEF20001FF
:1013F000F0230B700721906011607047FEE700003A
:10140000B0B540F2700446F20040C2F20004C4F2EB
:101410000000042100254FF480224FF4001384E8DB
:1014200023002046C4E90352C4E90535A583FFF72C
:10143000F9F9002818BFFEF741FF01202146C4E951
:1014400011000E2041F8285FE0642046C4E90B55E6
:10145000C4E90D55C4E90F55FEF7A2FF002808BFE7
:10146000B0BDBDE8B040FEF729BF000070B584B044
:1014700041F21800C4F20200016841F2000441F098
:10148000100101600168C4F2010401F01001009133
:1014900000990168012241F02001016001684FF4C8
:1014A000005501F02001009100990168012641F0EA
:1014B00004010160016801F00401009100990168D4
:1014C00041F00801016000684FF4005100F008008D
:1014D000009000982046FFF7FDFB002002900320BB
:1014E000039069462046CDE90056FFF7DDFA04B0C7
:1014F00070BD0000FEE70000FEE70000704700003E
:1015000070470000FFF7F2BB7047000040F2700028
:10151000C2F20000FFF756B840F27000C2F20000BD
:10152000FFF750B8FEE7000040F22010C2F20000C2
:1015300000F060B8017E012918BF7047D0F8122072
:10154000018AC0F80A20C28A018100210182C0F804
:101550001210C281C182704741F20000C4F2010042
:101560004FF400510122FFF7B5BB0000B0B541F2C6
:101570000005C4F20105044628464FF40051FFF768
:10158000A1FB2046FFF77CFA28464FF40051FFF7F5
:1015900099FB2046BDE8B040FFF772BA70B540F243
:1015A000C006C2F2000606F1380504462846FFF7D9
:1015B0002BFA28460221FEF787FE00202168C6E9A3
:1015C0000300307608207061C6E9004170BD00005C
:1015D00080B540F2C001C2F2000100F10802031D13
:1015E00001F138000431FEF787FE0A20BDE8804093
:1015F000FFF746BA45F2555248F22311828108227C
:10160000C0F260018273002240F20163C0F80F2033
:10161000C0F81320A0F81720C0E90032816070479D
:1016200090B0FFF771FB00240120CDE90B44CDE918
:10163000094406900A904FF4E0104FF480310225DF
:101640000F9006A8CDE90714CDE90D51FFF7E6FC90
:1016500020B1EFF3108072B6FEE700BF0F20CDE996
:1016600001054FF48060CDE9040401A80221039430
:10167000FFF7F4FB20B1EFF3108072B6FEE700BF76
:10168000FFF7F4FEFFF7BCFEFEF7F2FDFEF7FCFDF0
:10169000FCE7000000000000000001020304060750
:1016A0000809010202030405060708090A0B0C0DCC
:1016B0000E0F1010D81600080000002010000000C7
:1016C00028010008E816000810000020300700007C
:1016D0004401000855FEFFFF01000000100000005B
:0816E0000024F40000000000EA
:04000005080000ED02
:00000001FF
